:100000000C9458000C9480000C9480000C94800098
:100010000C9480000C9480000C9480000C94800060
:100020000C9480000C9480000C9480000C94800050
:100030000C9480000C9480000C9480000C94800040
:100040000C94C8010C9480000C9438020C94120299
:100050000C9480000C9480000C9480000C94800020
:100060000C9480000C948000000000002300260007
:10007000290000000000250028002B0000000000DF
:10008000240027002A0004040404040404040202D7
:100090000202020203030303030301020408102007
:1000A00040800102040810200102040810209F0370
:1000B00011241FBECFEFD8E0DEBFCDBF11E0A0E01E
:1000C000B1E0E6EFF7E002C005900D92A632B1076D
:1000D000D9F721E0A6E2B1E001C01D92AA3DB20726
:1000E000E1F710E0C8E5D0E004C02197FE010E94CE
:1000F000EE03C735D107C9F70E94AF020C94F9038C
:100100000C940000CF93DF9390E0FC01E656FF4F84
:100110002491FC01EA57FF4F84918823C1F090E0BD
:10012000880F991FFC01E458FF4FC591D491FC0141
:10013000EE58FF4FA591B4919FB7F8948881E22FB4
:10014000E0958E2388838C91E823EC939FBFDF9109
:10015000CF910895CF92DF92EF92FF920F931F936A
:10016000CF93DF936C017A018B01C0E0D0E0CE1514
:10017000DF0589F0D8016D918D01D601ED91FC91DB
:100180000190F081E02DC6010995892B11F47E01C3
:1001900002C02196ECCFC701DF91CF911F910F9143
:1001A000FF90EF90DF90CF900895089580E090E069
:1001B0000895FC01538D448D252F30E0842F90E06D
:1001C000821B930B541710F0CF9608950197089552
:1001D000FC01918D828D981761F0828DDF01A80F4F
:1001E000B11D5D968C91928D9F5F9F73928F90E071
:1001F00008958FEF9FEF0895FC01918D828D9817E0
:1002000031F0828DE80FF11D858D90E008958FEF1C
:100210009FEF0895FC01918D228D892F90E0805CE5
:100220009F4F821B91098F73992708958DE391E069
:100230000E940A0121E0892B09F420E0822F089511
:10024000FC01848DDF01A80FB11DA35ABF4F2C9173
:10025000848D90E001968F739927848FA689B78942
:100260002C93A089B1898C9180648C93938D848D1B
:10027000981306C00288F389E02D80818F7D8083EA
:100280000895EF92FF920F931F93CF93DF93EC01AA
:1002900081E0888F9B8D8C8D981305C0E889F98942
:1002A000808185FD24C0F62E0B8D10E00F5F1F4F5F
:1002B0000F731127E02E8C8DE8120CC00FB607FCCF
:1002C000FACFE889F989808185FFF5CFCE010E94B8
:1002D0002001F1CF8B8DFE01E80FF11DE35AFF4F96
:1002E000F0820B8FEA89FB898081806207C0EE89EA
:1002F000FF896083E889F98980818064808381E057
:1003000090E0DF91CF911F910F91FF90EF900895B2
:10031000CF93DF93EC01888D8823C9F0EA89FB89AC
:10032000808185FD05C0A889B9898C9186FD0FC0A3
:100330000FB607FCF5CF808185FFF2CFA889B98978
:100340008C9185FFEDCFCE010E942001E7CFDF9198
:10035000CF91089580E090E0892B29F00E9416014A
:1003600081110C9400000895009769F0FC01019040
:100370000020E9F73197AF01481B590BBC018DE311
:1003800091E00C94AA0080E090E008950E94F403AC
:100390001F920F920FB60F9211242F933F938F93BA
:1003A0009F93AF93BF938091390190913A01A091AF
:1003B0003B01B0913C013091380123E0230F2D37F0
:1003C00020F40196A11DB11D05C026E8230F029659
:1003D000A11DB11D209338018093390190933A01FA
:1003E000A0933B01B0933C01809134019091350181
:1003F000A0913601B09137010196A11DB11D8093E6
:10040000340190933501A0933601B0933701BF9129
:10041000AF919F918F913F912F910F900FBE0F90B1
:100420001F9018951F920F920FB60F9211242F93C1
:100430003F934F935F936F937F938F939F93AF936C
:10044000BF93EF93FF938DE391E00E942001FF9112
:10045000EF91BF91AF919F918F917F916F915F913C
:100460004F913F912F910F900FBE0F901F901895B5
:100470001F920F920FB60F9211242F938F939F9379
:10048000EF93FF93E0914D01F0914E018081E09157
:100490005301F091540182FD12C090818091560168
:1004A0008F5F8F7320915701821751F0E0915601B1
:1004B000F0E0E35CFE4F958F8093560101C0808190
:1004C000FF91EF919F918F912F910F900FBE0F9001
:1004D0001F901895CF92DF92EF92FF920F931F9388
:1004E000E82FF92F05C0015011092109310961F1E7
:1004F000908196239417B9F305C001501109210981
:10050000310911F1908196239413F7CFC12CD12C8E
:10051000E12CF12C0AC08FEFC81AD80AE80AF80AB1
:100520000C151D052E053F0579F080818623841763
:1005300091F36C2D7D2D8E2D9F2D1F910F91FF908E
:10054000EF90DF90CF90089560E070E080E090E061
:100550001F910F91FF90EF90DF90CF900895CF9370
:10056000DF93CDB7DEB7A1970FB6F894DEBF0FBE0D
:10057000CDBF789484B5826084BD84B5816084BD2C
:1005800085B5826085BD85B5816085BD80916E0031
:10059000816080936E001092810080918100826062
:1005A000809381008091810081608093810080919F
:1005B00080008160809380008091B100846080938E
:1005C000B1008091B00081608093B00080917A008A
:1005D000846080937A0080917A00826080937A00B0
:1005E00080917A00816080937A0080917A0080689F
:1005F00080937A001092C100E0914D01F0914E017C
:1006000082E08083E0914901F0914A011082E091FB
:100610004B01F0914C018FEC808310925501E091D9
:100620005101F091520186E08083E0914F01F091F9
:100630005001808180618083E0914F01F0915001F1
:10064000808188608083E0914F01F091500180812A
:1006500080688083E0914F01F091500180818F7D0F
:10066000808380E10E94820081E10E94820082E119
:100670000E94820083E10E94820084E10E94820045
:1006800085E10E94820082E191E00E94B40183E250
:1006900091E00E94B4019BEAE92E90E0F92E27E94F
:1006A000C22E20E0D22E3AE0832E912CA12CB12C28
:1006B000F7016491F6018491E82FF0E0EE0FFF1F3F
:1006C000E859FF4F8591949100E412E42FE030E067
:1006D000462F0E946A02611571058105910539F066
:1006E000DC01CB010196A11DB11DBF7003C080E0EC
:1006F00090E0DC0190932901809328019C01AD01D9
:100700004427552719A28E010F5D1F4FCA01B90159
:10071000A50194010E94CC03605DF80162938F01F2
:10072000211531054105510589F7CF010E94B4011A
:1007300083E291E00E94B4010E94AA01B9CFEDE3E7
:10074000F1E01382128288EE93E0A0E0B0E08483AF
:100750009583A683B78384E091E09183808385ECC1
:1007600090E09587848784EC90E09787868780EC7B
:1007700090E0918B808B81EC90E0938B828B82EC6C
:1007800090E0958B848B86EC90E0978B868B118E16
:10079000128E138E148E0895A1E21A2EAA1BBB1B73
:1007A000FD010DC0AA1FBB1FEE1FFF1FA217B3073D
:1007B000E407F50720F0A21BB30BE40BF50B661F53
:1007C000771F881F991F1A9469F760957095809517
:1007D00090959B01AC01BD01CF010895EE0FFF1F65
:1007E0000590F491E02D099481E090E0F8940C9448
:0607F000F903F894FFCFAD
:1007F600000000004101AA00D90088010A01E800B2
:10080600FC005365747465642050494E5320284F8C
:060816004B29000D0A0051
:00000001FF
